:020000040800F2
:10000000380A0020450100082113000823130008C6
:10001000271300082B1300082F130008000000000E
:100020000000000000000000000000003313000882
:1000300035130008000000003713000839130008CA
:100040005F0100085F0100085F0100085F01000810
:100050005F0100085F0100085F0100085F01000800
:100060005F0100085F0100085F0100085F010008F0
:100070005F0100085F0100085F0100085F010008E0
:100080003B130008771300085F0100085F010008B8
:100090005F0100085F0100085F0100085F010008C0
:1000A0005F0100085F0100085F0100085F010008B0
:1000B0005F0100085F0100085F0100085F010008A0
:1000C0005F0100085F0100085F0100085F01000890
:1000D0005F0100085F0100085F0100085F01000880
:1000E0005F0100085F0100085F0100085F01000870
:1000F0005F0100085F0100085F0100085F01000860
:100100005F0100085F0100085F0100085F0100084F
:100110005F0100085F0100085F0100085F0100083F
:100120005F0100085F0100085F0100085F0100082F
:10013000DFF80CD001F072FD004800478111000883
:10014000380A00200648804706480047FEE7FEE7D9
:10015000FEE7FEE7FEE7FEE7FEE7FEE7FEE7FEE777
:1001600047020008310100080CB500200190009002
:100170006C48006840F480306A49086000BF6948F4
:10018000006800F4003000900198401C0190009835
:1001900018B90198B0F5A06FF1D16248006800F479
:1001A000003010B10120009001E000200090009884
:1001B000012843D15C48006840F010005A490860AB
:1001C0000846006820F0030008600846006840F018
:1001D0000200086053484068524948600846406839
:1001E00048600846406840F48060486008464068BF
:1001F00020F47C1048600846406840F4E8104860ED
:100200000846006840F08070086000BF45480068FC
:1002100000F000700028F9D04248406820F0030048
:10022000404948600846406840F00200486000BF0E
:100230003C48406800F00C000828F9D10CBD10B50E
:10024000FFF792FF10BD10B53648006840F001007E
:1002500034490860084640683449084031494860DC
:1002600008460068324908402E4908600846006880
:1002700020F4802008600846406820F4FE004860B2
:100280004FF41F008860FFF7DAFF4FF00060294944
:10029000086010BD10B5002100200022214B5B68D2
:1002A00003F00C0121B1042906D0082928D107E068
:1002B000214B224C236027E01F4B204C236023E07E
:1002C000184B5B6803F47010164B5B6803F48032C4
:1002D000022303EB904022B9194B4343174C236090
:1002E0000DE0104B5B6803F4003323B1144B434320
:1002F000124C236003E0104B4343104C236003E097
:100300000D4B0E4C236000BF00BF064B5B68C3F370
:1003100003130C4CE15C094B1B68CB40074C23607A
:1003200010BD000000100240002002400000FFF855
:10033000FFFFF6FE08ED00E000127A00000000204A
:1003400000093D000400002031490143314A116099
:10035000704770B5002100230F22C47804B32D4CE0
:10036000246804F4E064C4F5E064210AC1F10403E4
:10037000CA40447804FA03F1847814402143090107
:10038000254C0678A155047804F01F050124AC40E3
:1003900005786D11AD0005F1E025C5F8004109E0D3
:1003A000047804F01F050124AC401C4D067876113A
:1003B00045F8264070BD1A4A0A400243154B1B1FE0
:1003C0001A60704739B1134A121D12680243114B6B
:1003D0001B1D1A6006E00F4A121D126882430D4B66
:1003E0001B1D1A607047042808D14FF0E0210969ED
:1003F00041F004014FF0E022116107E04FF0E021ED
:10040000096921F004014FF0E022116170470000FA
:100410000000FA050CED00E000E400E080E100E0FF
:1004200080FFFF1F01684FF6FE721140016000213E
:10043000016041608160C1608D49884208D18C496A
:100440000839496841F00F01894A083A51608AE049
:1004500087491431884208D185490839496841F0F3
:10046000F001834A083A51607DE081492831884291
:1004700008D17F490839496841F470617C4A083ADB
:10048000516070E07A493C31884208D17849083996
:10049000496841F47041764A083A516063E0744912
:1004A0005031884208D172490839496841F47021B5
:1004B0006F4A083A516056E06D496431884208D16C
:1004C0006B490839496841F47001694A083A51603A
:1004D00049E067497831884208D165490839496857
:1004E00041F07061624A083A51603CE061498842DB
:1004F00006D1011F096841F00F01021F116032E0AF
:100500005C491431884208D15A49091F096841F0F1
:10051000F001584A121F116025E0564928318842DF
:1005200008D15449091F096841F47061514A121FEA
:10053000116018E04F493C31884208D14D49091FEC
:10054000096841F470414B4A121F11600BE04949A0
:100550005031884207D14749091F096841F4702189
:10056000444A121F1160704710B50022026847F616
:10057000F0739A430C6A8B6823430C6923434C69DC
:1005800023438C692343CC6923434C6A23438C6AFD
:1005900023431A430260CB6843600B6883604B6857
:1005A000C36010BD0021016041608160C1600161D4
:1005B00041618161C161016241628162704721B123
:1005C000026842F00102026004E002684FF6FE7326
:1005D0001A40026070471AB103680B43036002E0DF
:1005E00003688B4303607047416070470146486869
:1005F00080B2704701460020002201F080531BB1F9
:100600001C4B083B1A6802E0194B083B1A6802EAC7
:1006100001030BB1012000E00020704700F0805181
:1006200019B11449091F086002E0114908394860EE
:10063000704701460020002201F080531BB10D4B92
:10064000083B1A6802E00A4B083B1A6802EA0103F9
:100650000BB1012000E00020704700F0805119B17B
:100660000449091F086002E00149083948607047E1
:10067000080002400804024010B50446CC488442F9
:1006800008D10121042000F02DFB0021042000F0FE
:1006900029FB46E0C748844208D10121082000F028
:1006A00021FB0021082000F01DFB3AE0C2488442F3
:1006B00008D10121102000F015FB0021102000F0CE
:1006C00011FB2EE0BD48844208D10121202000F01A
:1006D00009FB0021202000F005FB22E0B8488442FD
:1006E00008D10121402000F0FDFA0021402000F057
:1006F000F9FA16E0B348844208D10121802000F0C5
:10070000F1FA0021802000F0EDFA0AE0AE488442C0
:1007100007D10121801500F0E5FA0021A01500F0B5
:10072000E1FA10BD10B50121084600F0DBFA002106
:10073000012000F0D7FA10BD2DE9F0410246002556
:100740000026002000230024002791F803C00CF0AD
:100750000F0591F803C00CF0100CBCF1000F03D092
:1007600091F802C04CEA050591F800C0BCF1000FF9
:1007700031D0146800202BE04FF0010C0CFA00F38C
:10078000B1F800C00CEA03069E4220D183004FF06E
:100790000F0C0CFA03F7BC4305FA03FC4CEA040403
:1007A00091F803C0BCF1280F06D14FF0010C0CFAF0
:1007B00000FCC2F814C00AE091F803C0BCF1480F75
:1007C00005D14FF0010C0CFA00FCC2F810C0401C1F
:1007D0000828D1D31460B1F800C0BCF1FF0F34DD9C
:1007E000546800202EE000F1080C4FF0010808FAD0
:1007F0000CF3B1F800C00CEA03069E4221D183003D
:100800004FF00F0C0CFA03F7BC4305FA03FC4CEA5B
:10081000040491F803C0BCF1280F05D100F1080CC5
:1008200008FA0CF8C2F8148091F803C0BCF1480F24
:1008300007D100F1080C4FF0010808FA0CF8C2F8D3
:100840001080401C0828CED35460BDE8F0814FF6DC
:10085000FF710180022181700421C170704702463E
:10086000002093680B400BB1012000E0002070478E
:100870000146886880B2704702460020D3680B406A
:100880000BB1012000E0002070470146C86880B22B
:10089000704701617047416170470AB1016100E032
:1008A00041617047C16070474FF480320A438261F2
:1008B0008161826182698269704702460020434BF0
:1008C00018684FF68073184040EA021008433F4B07
:1008D000186070473E49C8617047F0B50A4600236A
:1008E00000240021002500F00046B6F1004F02D19F
:1008F000364EF16901E0354E7168C0F3034583B2AD
:1009000000F44016B6F5401F08D121F070612F4E5B
:10091000766826F070662D4F7E6012E000F4801637
:10092000B6F5801F06D1032606FA05F4A14341F06F
:10093000706106E0460D360103FA06F6B14341F058
:10094000706122B1460D360103FA06F6314300F01C
:100950000046B6F1004F02D11C4EF16101E01B4E82
:100960007160F0BD30B500228B071C0F0F2303FA16
:1009700004F2164B08338C1053F824309343134C75
:1009800008348D1044F8253023468C1053F8243059
:100990008C07240F00FA04F423430C4C08348D1008
:1009A00044F8253030BD0A49DC310860704700004A
:1009B00000080140000C01400010014000140140FB
:1009C00000180140001C01400020014000000140CF
:1009D00000002042DF48006840F00100DD49086067
:1009E00008464068DC490840DA4948600846006823
:1009F000DA490840D74908600846006820F480209A
:100A000008600846406820F4FE0048604FF41F006C
:100A100088607047CF49096821F48031CD4A116060
:100A20001146096821F480211160B0F5803F03D0A0
:100A3000B0F5802F0ED106E0C649096841F4803137
:100A4000C44A116007E0C349096841F4A021C14AC2
:100A5000116000E000BF00BF704710B501460022E2
:100A6000002300204A11012A02D1BA4C236806E073
:100A7000022A02D1B74C236A01E0B64C636A01F046
:100A80001F02012494401C400CB1012000E0002012
:100A900010BD38B5002000900024002500BF312093
:100AA000FFF7DBFF05460098401C00900098B0F56A
:100AB000A06F01D0002DF2D03120FFF7CEFF08B19A
:100AC000012400E00024204638BD01460020A14A50
:100AD000106820F0F80040EAC10010607047A0499B
:100AE00008607047024600209A4B586820F47C103A
:100AF00042EA01031843974B5860704798490866CB
:100B0000704701460020934A506820F003000843D4
:100B1000506070478F48406800F00C0070470146F5
:100B200000208C4A506820F0F00008435060704765
:100B300001460020874A506820F4E0600843506076
:100B4000704701460020834A506820F4605040EA14
:100B5000C1005060704729B17E4A527A02437D4BF2
:100B60005A7204E07B4A527A82437A4B5A72704737
:100B70007B49D8310860704701460020754A5068AB
:100B800020F440400843506070470021714A2032F1
:100B90001170704A82F82010012802D004280AD16E
:100BA00004E001216B4A2032117005E00521694AF9
:100BB0002032117000E000BF00BF70476949086033
:100BC00070476449096A0143624A11627047654986
:100BD00044390860704730B500210022002400230A
:100BE0005C4D6D6805F00C0121B1042905D0082980
:100BF00023D105E05C4D056022E05B4D05601FE000
:100C0000544D6D6805F47012524D6D6805F48034D2
:100C1000022505EB92421CB9544D554305600BE08B
:100C20004C4D6D6805F400351DB1504D55430560C0
:100C300002E04D4D5543056002E04B4D056000BF9D
:100C400000BF444D6D6805F0F0010909484D6B5C2B
:100C50000568DD4045603F4D6D6805F4E061090AB7
:100C6000434D6B5C4568DD4085603A4D6D6805F429
:100C70006051C90A3E4D6B5C4568DD40C560354D2D
:100C80006D6805F44041890B3A4D6B5CC568B5FB56
:100C9000F3F5056130BD29B12E4A526902432D4B4F
:100CA0005A6104E02B4A526982432A4B5A617047C9
:100CB00029B1284A92690243264B9A6104E0254AE9
:100CC00092698243234B9A61704729B1214AD269C4
:100CD0000243204BDA6104E01E4AD26982431D4B75
:100CE000DA61704729B11B4AD2680243194BDA60B6
:100CF00004E0184AD2688243164BDA60704729B183
:100D0000144A12690243134B1A6104E0114A126932
:100D10008243104B1A61704712494039086070478E
:100D20000F49C86470470B49C87170470948406A49
:100D300040F0807007494862704701460020054A2C
:100D400092680A400AB1012000E000207047014982
:100D500088727047001002400000FFF8FFFFF6FEA7
:100D6000000042428004424200127A0000093D0025
:100D7000140000202400002010B50446FB488442E3
:100D800009D101218803FFF7ADFF00214FF4804016
:100D9000FFF7A8FF32E0F648844209D10121480458
:100DA000FFF7ADFF00214FF40030FFF7A8FF25E06B
:100DB000F048844209D101218804FFF7A0FF0021F7
:100DC0004FF48020FFF79BFF18E0EB48844209D1E5
:100DD0000121C804FFF793FF00214FF40020FFF723
:100DE0008EFF0BE0E548844208D101210805FFF79A
:100DF00086FF00214FF48010FFF781FF10BD2DE921
:100E0000F04786B005460E460024A24600BFA14624
:100E10000027B08900B100BF2F462C8A4CF6FF7026
:100E20000440F08804432C82AC894EF6F310044051
:100E3000B08831890843718908430443AC81AC8A86
:100E40004FF6FF400440B0890443AC8201A8FFF78D
:100E5000C2FEC648874202D1DDF810A001E0DDF8ED
:100E60000CA0A88900F4004040B10AEBCA0000EBD6
:100E70000A1031684900B0FBF1F807E00AEBCA003C
:100E800000EB0A1031688900B0FBF1F86420B8FB70
:100E9000F0F004012009642101FB1089A88900F405
:100EA000004040B1322000EBC900B0FBF1F000F08F
:100EB0000700044308E0322000EB09106421B0FB76
:100EC000F1F000F00F0004432C8106B0BDE8F0877C
:100ED0004FF41651016000218180C18001810C21F5
:100EE000418100218181704710B502460020108A9F
:100EF0004FF2FF0318400B884C8823438C88234310
:100F0000CC8823431843108210BD0021018041800A
:100F10008180C180704721B1828942F40052828170
:100F200004E082894DF6FF731A4082817047F0B564
:100F30000346002400260025002040F66A17B94227
:100F400000D100BF1846C1F3421401F01F0601276B
:100F500007FA06F5012C01D10C3004E0022C01D176
:100F6000103000E014301AB107682F43076002E028
:100F70000768AF430760F0BD1AB1838A0B438382D1
:100F800002E0838A8B4383827047028A4FF6F073B4
:100F90001A400282028A0A430282704782894FF213
:100FA000FF731A40828182890A438281704721B18E
:100FB000828942F00202828104E082894FF6FD7349
:100FC0001A4082817047028A4FF6DF731A4002820C
:100FD000028A0A430282704721B1028A42F48042A7
:100FE000028204E0028A4BF6FF731A4002827047C5
:100FF000C1F308028280704701468888C0F3080068
:101000007047818941F0010181817047028BD2B222
:101010000283028B42EA012202837047028B02F4B0
:101020007F420283028B0A430283704721B1828A86
:1010300042F02002828204E0828A4FF6DF731A4077
:101040008282704721B1828A42F01002828204E0DB
:10105000828A4FF6EF731A408282704721B1828AEA
:1010600042F00802828204E0828A4FF6F7731A4047
:101070008282704721B1828942F40042828103E07A
:101080008289C2F30E028281704721B1828A42F4C2
:101090000062828204E0828A4FF2FF731A408282E9
:1010A0007047828A4FF6FB731A408282828A0A4313
:1010B0008282704721B1828A42F00202828204E079
:1010C000828A4FF6FD731A408282704702460020E2
:1010D000B1F5007F00D100BF13880B400BB1012098
:1010E00000E00020704701F40072B2F5007F00D1EB
:1010F00000BFCA430280704770B502460024002337
:101100000025002040F66A16B14200D100BFC1F3AD
:10111000421501F01F03012606FA03F3012D02D147
:101120009689334006E0022D02D1168A334001E051
:10113000968A33400C12012606FA04F416883440CD
:1011400013B10CB1012000E0002070BD10B50022E9
:10115000002340F66A14A14200D100BF0A12012404
:101160009440A3B2DC43048010BD0000003801406D
:101170000044004000480040004C00400050004047
:10118000ADF5427D0020C190002400F00BF900F085
:10119000A4F94FA000F054FD01208DF8FC000220BE
:1011A0008DF8FD000A20ADF8FE00002502E040A801
:1011B00045556D1C0A2DFAD3FF20C090C0A8F82217
:1011C00042A93E90684600F0F7FC80A83FA90EC9EE
:1011D00000F0ABFC10B140A000F032FD002508E0AB
:1011E00000BFBDF8001380A800F011FB0128F8D162
:1011F0006D1C642DF4D3002569E03E483E4A126818
:10120000811A3D48006800F0DFF93B49096808444D
:101210003949086000BFC1A800F0F3FB002850D096
:101220006D1C3FA800F04DFC00243FA8C07944EAA3
:1012300000643FA8807944EA00443FA8407944EA2A
:1012400000249DF8000104439DF8FC00032806D00B
:1012500006280FD0082825D0242830D115E042F2E6
:1012600010703044A04203D016B124A000F0E8FC76
:10127000264625E042F210703844A04203D017B150
:1012800020A000F0DDFC27461AE044F62060404430
:10129000A04205D0B8F1000F02D01CA000F0D0FC95
:1012A000A0460DE049F640404844A04205D0B9F1BF
:1012B000000F02D017A000F0C3FCA14600E000BF61
:1012C00000BF0D4800681549401AC828A3DC94E700
:1012D00074657374200A000063726561746520612F
:1012E000206672616D652073756363657373200D8D
:1012F0000A000000360600203000002030336C6FFA
:1013000073740A0030366C6F73740A0032346C6F79
:1013100073740A0030386C6F73740A003602002050
:10132000704700BFFEE700BFFEE700BFFEE700BF5B
:10133000FEE7704770477047704710B54FF40010D4
:10134000FFF777F9012814D114480068FF2807D166
:101350000020124908604FF40010FFF75FF910BD3C
:101360000E480068401C0D4908604FF40010FFF75C
:1013700055F900BFF3E710B54FF00070FFF759F9CA
:10138000012809D10648007810B1002004490870EE
:101390004FF00070FFF742F910BD00002800002058
:1013A0002900002000B585B0012144F20400FFF7B8
:1013B0007FFC4FF40070ADF8100018208DF813007A
:1013C00003208DF8120004A92148FFF7B5F94FF466
:1013D0008060ADF8100004208DF8130004A91C48AB
:1013E000FFF7AAF94FF4E13000900020ADF80400B7
:1013F000ADF80600ADF80800ADF80C000C20ADF813
:101400000A0069461348FFF7FAFC01211148FFF76B
:1014100082FD05B000BD70B504460D46E1B20D4831
:10142000FFF7E6FD00BF80210A48FFF74FFE0028C6
:10143000F9D0204670BD10B5044600BF20210548F4
:10144000FFF744FE0028F9D00248FFF7D5FD10BD94
:10145000000801400038014008B54FF4E060FEF795
:1014600073FF10208DF8000000208DF8010001208E
:101470008DF802008DF803006846FEF76AFF08BD8C
:1014800000B58BB0F548FEF7CDFF01210846FFF708
:1014900002FCF3480090F348019000200290FF20E6
:1014A0000390002004908020059000200690079073
:1014B00020200890C001099000200A906946E74862
:1014C000FFF752F80121E548FFF779F801220221E0
:1014D000E248FFF780F80BB000BD00B585B00121F0
:1014E0004804FFF7F2FB01210420FFF7E1FB042091
:1014F000ADF8100018208DF8130003208DF81200AD
:1015000004A9D948FFF718F90820ADF81000042005
:101510008DF8130004A9D448FFF70EF94FF4E13019
:1015200000900020ADF80400ADF80600ADF808000A
:10153000ADF80C000C20ADF80A006946C848001F41
:10154000FFF75DFC0122C021C548001FFFF714FD15
:10155000FFF796FFFFF780FF0121C148001FFFF74B
:10156000DAFC05B000BD10B58CB00446BB481430A1
:10157000FEF758FF01210846FFF78DFBB8480190A0
:10158000BA48029010200390049400200590802017
:10159000069000200790089009904FF480500A9020
:1015A00000200B9001A9AD481430FEF7DDFF0121AA
:1015B000AA481430FFF703F801220221A74814308B
:1015C000FFF709F80CB010BD2DE9F04180460C463C
:1015D000A7480078A7490978884249D19F48FFF772
:1015E00005F8C0F1FF00A4490988401A85B2A54258
:1015F0002FD9A1480088FC281CDB9848FEF7F6FF8D
:10160000032817DB00269C480088C0F1FF0086B243
:101610009448994A128881183246404600F0CCFA24
:101620000020954908809248007892490870304619
:10163000BDE8F0818B48904A1288811822464046C6
:1016400000F0BAFA8C48008820448B490880A0B288
:10165000EEE78448884A128881182A46404600F0FE
:10166000ABFA854800882844834908802846DFE78C
:1016700080480078FF2802D17D48007830B17C484E
:1016800000787C490978401A012878D17348FEF720
:10169000ADFF794909880844FE2833DA00207649ED
:1016A00008806E48FEF7A2FFC0F1FF00724909886A
:1016B000401A85B2A54212D96A486F4A1288811829
:1016C0002246404600F078FA6B48008820446A4978
:1016D00008806748007867490870A0B2A8E76148A9
:1016E000654A128881182A46404600F065FA624829
:1016F00000882844604908805D4800785D4908708A
:10170000284695E75C480088C0F1FF065348FEF77D
:101710006DFFC0F1FF07F019A04215D85148564A95
:10172000128881183246404600F046FA3A464D4942
:10173000404600F041FA50490F804D4800784D492D
:101740000870F01980B273E7B44219D3B819A042F7
:1017500016D94448484A128881183246404600F05B
:101760002BFAA21B3F49404600F026FAA01B424933
:1017700008803F4800783F490870A0B258E712E05F
:1017800038483D4A128881182246404600F014FA33
:101790003948008820443849088035480078354960
:1017A0000870A0B244E70020334908802B48FEF7B8
:1017B0001DFFC0F1FF0030490988401A85B2A542DB
:1017C00012D928482C4A128881182246404600F037
:1017D000F3F92948008820442749088024480078E4
:1017E00024490870A0B223E71E48234A12888118B2
:1017F0002A46404600F0E0F91F48008828441E4968
:1018000008801B4800781B490870284610E738B547
:1018100005460C461948007808B1002038BDFF2C59
:1018200019DA22462946114800F0C6F92046FFF78A
:101830009AFE11208DF8000000208DF80100012093
:101840008DF802008DF803006846FEF782FD012046
:101850000A490870E2E7FF20E0E700006C00024060
:1018600004440040380000200008014037010020F7
:10187000280000202A0000202C0000202900002041
:101880004FF0FF31016070472DE9F0410C462546CD
:1018900022F0030602F00307002112E081F0030C9E
:1018A00015F80C30D0F800C083EA1C6CDFF8C48057
:1018B00058F82CC0D0F800808CEA082CC0F800C082
:1018C000491CB142EAD3002115E0A7F1010C8CEAD2
:1018D000010CB44415F80C30D0F800C083EA1C6C3D
:1018E000DFF8908058F82CC0D0F800808CEA082CE3
:1018F000C0F800C0491CB942E7D3BDE8F0810146F9
:101900000868704738B504460D466846FFF7B8FFCB
:101910002A4621466846FFF7B7FF6846FFF7EFFF04
:1019200038BD002101807047F0B50B461D460021EF
:101930000BE06E5C07787E40F4B20F4E36F8146010
:10194000078886EA27260680491C9142F1D3F0BD1C
:1019500001460888704738B504460D466846FFF7CB
:10196000E0FF2A4621466846FFF7DEFF6846FFF79C
:10197000EFFF38BD901E0008901C000810B58C4C7D
:1019800007E02078FF2803D160785A2800D105E0CD
:10199000641C88480068801EA042F2D800BF8448BA
:1019A000844209D1834800688149401A012801DD39
:1019B000012010BD0020FCE77E480068801EA04288
:1019C0000FD17C480068021B2146794800F0F4F8EA
:1019D000784800687649611A401A76490860002004
:1019E000E7E774480068021B2146714800F0E4F8FC
:1019F000704800686E49611A401A6E4908600120FB
:101A0000D7E710B50446FFF7B9FF002857D069485B
:101A100000686749401A08284FDD0846007949796F
:101A200040EA012020802088093020806148006839
:101A30005F49401A218888422ADB2088401E5C4981
:101A4000085C332813D12088411F5948801CFFF7B8
:101A500082FF2188C91E564A525C2188891E544B38
:101A6000595C42EA0121884201D1012010BD514850
:101A700000684F49401A821E891C881E00F09CF89D
:101A80004C480068801E4B49086000202080EDE72C
:101A90002088FF280FDD474800684549401A821E0C
:101AA000891C881E00F088F842480068801E414961
:101AB0000860002020800020D8E70020D6E7002022
:101AC000D4E710B504464FF48271204600F09BF82D
:101AD0003748807820703648C07860703448007984
:101AE000608060883249497940EA012060806288DC
:101AF0002F49891D201D00F05FF82E4800682C4BEF
:101B0000C01A6388C01AA0F109021846284B18446D
:101B100000F10901184600F04FF826480168608876
:101B20000930081A2349086010BD0FB470B5044687
:101B3000469E3188BDF816000930814236DDFF200F
:101B400020705A2060709DF81400A0709DF8150058
:101B5000E070BDF816002071BDF81600001260712B
:101B6000BDF8160028B1BDF8162006A9A01D00F08A
:101B700023F8BDF81600011DA01CFFF7ECFE05467A
:101B8000BDF81600801D25542912BDF81600C01D91
:101B900021543321BDF8160008302154BDF8160039
:101BA00009303080012070BC5DF814FB0020FAE79A
:101BB000360200203000002010B5431A934209D2AB
:101BC0008318881803E010F8011D03F8011D521E48
:101BD000F9D210BD40EA01039B0703D009E008C910
:101BE000121F08C0042AFAD203E011F8013B00F8E2
:101BF000013B521EF9D210BDD2B201E000F8012B18
:101C0000491EFBD270470022F6E710B513460A467C
:101C100004461946FFF7F0FF204610BD064C074D5D
:101C200006E0E06840F0010394E8070098471034AC
:101C3000AC42F6D3FEF780FA90220008B0220008EA
:101C4000014A024900F013B81714000834000020BC
:101C500002E008C8121F08C1002AFAD17047704775
:101C6000002001E001C1121F002AFBD170472DE9BD
:101C7000F04116460F460446002503E03946B047BA
:101C8000641C6D1C20780028F8D12846BDE8F0813E
:101C90000000891112239B322446AD573665BF746C
:101CA000488CC19D5AAFD3BE6CCAE5DB7EE9F7F81C
:101CB0008110080193331A22A5562C47B7753E644C
:101CC000C99C408DDBBF52AEEDDA64CBFFF976E8FC
:101CD00002218B30100299132667AF763444BD552C
:101CE0004AADC3BC588ED19F6EEBE7FA7CC8F5D9DC
:101CF00083310A2091121803A7772E66B5543C450C
:101D0000CBBD42ACD99E508FEFFB66EAFDD874C9BB
:101D100004428D5316619F702004A9153227BB36EB
:101D20004CCEC5DF5EEDD7FC6888E1997AABF3BA9B
:101D300085520C4397711E60A1142805B3373A26CB
:101D4000CDDE44CFDFFD56ECE9986089FBBB72AA7B
:101D500006638F7214409D512225AB343006B917AB
:101D60004EEFC7FE5CCCD5DD6AA9E3B8788AF19B5B
:101D700087730E6295501C41A3352A24B11638078B
:101D8000CFFF46EEDDDC54CDEBB962A8F99A708B3B
:101D9000088481951AA793B62CC2A5D33EE1B7F06B
:101DA0004008C919522BDB3A644EED5F766DFF7C1B
:101DB000899400859BB712A6ADD224C3BFF136E04B
:101DC000C1184809D33B5A2AE55E6C4FF77D7E6CFB
:101DD0000AA583B4188691972EE3A7F23CC0B5D12B
:101DE0004229CB38500AD91B666FEF7E744CFD5DDB
:101DF0008BB502A499961087AFF326E2BDD034C10B
:101E0000C3394A28D11A580BE77F6E6EF55C7C4DBA
:101E10000CC685D71EE597F42880A1913AA3B3B2EA
:101E2000444ACD5B5669DF78600CE91D722FFB3E9A
:101E30008DD604C79FF516E4A9902081BBB332A2CA
:101E4000C55A4C4BD7795E68E11C680DF33F7A2E7A
:101E50000EE787F61CC495D52AA1A3B03882B193AA
:101E6000466BCF7A5448DD59622DEB3C700EF91F5A
:101E70008FF706E69DD414C5ABB122A0B99230838A
:101E8000C77B4E6AD5585C49E33D6A2CF11E780F3A
:101E900000000000B71DC1046E3B8209D926430D26
:101EA000DC7604136B6BC517B24D861A0550471EBE
:101EB000B8ED08260FF0C922D6D68A2F61CB4B2B5E
:101EC000649B0C35D386CD310AA08E3CBDBD4F3806
:101ED00070DB114CC7C6D0481EE09345A9FD5241A6
:101EE000ACAD155F1BB0D45BC2969756758B56523E
:101EF000C836196A7F2BD86EA60D9B6311105A67DE
:101F000014401D79A35DDC7D7A7B9F70CD665E7485
:101F1000E0B6239857ABE29C8E8DA19139906095E5
:101F20003CC0278B8BDDE68F52FBA582E5E66486FD
:101F3000585B2BBEEF46EABA3660A9B7817D68B31D
:101F4000842D2FAD3330EEA9EA16ADA45D0B6CA045
:101F5000906D32D42770F3D0FE56B0DD494B71D965
:101F60004C1B36C7FB06F7C32220B4CE953D75CA7D
:101F700028803AF29F9DFBF646BBB8FBF1A679FF9D
:101F8000F4F63EE143EBFFE59ACDBCE82DD07DECC5
:101F900077708634C06D4730194B043DAE56C53955
:101FA000AB0682271C1B4323C53D002E7220C12A8D
:101FB000CF9D8E1278804F16A1A60C1B16BBCD1F8D
:101FC00013EB8A01A4F64B057DD00808CACDC90CD5
:101FD00007AB9778B0B6567C69901571DE8DD475D5
:101FE000DBDD936B6CC0526FB5E6116202FBD0660D
:101FF000BF469F5E085B5E5AD17D1D576660DC530D
:1020000063309B4DD42D5A490D0B1944BA16D84054
:1020100097C6A5AC20DB64A8F9FD27A54EE0E6A194
:102020004BB0A1BFFCAD60BB258B23B69296E2B24C
:102030002F2BAD8A98366C8E41102F83F60DEE87CC
:10204000F35DA9994440689D9D662B902A7BEA9494
:10205000E71DB4E0500075E4892636E93E3BF7ED14
:102060003B6BB0F38C7671F7555032FAE24DF3FECC
:102070005FF0BCC6E8ED7DC231CB3ECF86D6FFCB4C
:102080008386B8D5349B79D1EDBD3ADC5AA0FBD814
:10209000EEE00C6959FDCD6D80DB8E6037C64F6474
:1020A0003296087A858BC97E5CAD8A73EBB04B772C
:1020B000560D044FE110C54B383686468F2B4742EC
:1020C0008A7B005C3D66C158E4408255535D4351B4
:1020D0009E3B1D252926DC21F0009F2C471D5E28F4
:1020E000424D1936F550D8322C769B3F9B6B5A3BAC
:1020F00026D6150391CBD40748ED970AFFF0560E6C
:10210000FAA011104DBDD014949B93192386521D33
:102110000E562FF1B94BEEF5606DADF8D7706CFC33
:10212000D2202BE2653DEAE6BC1BA9EB0B0668EF6B
:10213000B6BB27D701A6E6D3D880A5DE6F9D64DAAB
:102140006ACD23C4DDD0E2C004F6A1CDB3EB60C9F3
:102150007E8D3EBDC990FFB910B6BCB4A7AB7DB0B3
:10216000A2FB3AAE15E6FBAACCC0B8A77BDD79A3EB
:10217000C660369B717DF79FA85BB4921F4675962B
:102180001A163288AD0BF38C742DB081C330718573
:1021900099908A5D2E8D4B59F7AB085440B6C950C3
:1021A00045E68E4EF2FB4F4A2BDD0C479CC0CD43DB
:1021B000217D827B9660437F4F460072F85BC1763B
:1021C000FD0B86684A16476C93300461242DC56563
:1021D000E94B9B115E565A1587701918306DD81C43
:1021E000353D9F0282205E065B061D0BEC1BDC0F5B
:1021F00051A69337E6BB52333F9D113E8880D03ABB
:102200008DD097243ACD5620E3EB152D54F6D429E2
:102210007926A9C5CE3B68C1171D2BCCA000EAC802
:10222000A550ADD6124D6CD2CB6B2FDF7C76EEDB9A
:10223000C1CBA1E376D660E7AFF023EA18EDE2EE7A
:102240001DBDA5F0AAA064F4738627F9C49BE6FD22
:1022500009FDB889BEE0798D67C63A80D0DBFB8482
:10226000D58BBC9A62967D9EBBB03E930CADFF971A
:10227000B110B0AF060D71ABDF2B32A66836F3A2FA
:102280006D66B4BCDA7B75B8035D36B5B440F7B1A2
:10229000B02200080000002038000000501C000898
:1022A000E822000838000020000A0000601C000836
:1022B00000A24A0400000000000000000102030424
:1022C00006070809000000000102030401020304DC
:1022D00006070809020406080000000000000000CC
:0822E00036020020000000009E
:0400000508000131BD
:00000001FF
