:020000040800F2
:10000000380A002045010008290F00082B0F0008BE
:100010002D0F00082F0F0008310F0008000000000E
:10002000000000000000000000000000330F000886
:10003000350F000800000000370F0008390F0008D6
:100040005F0100085F0100085F0100085F01000810
:100050005F0100085F0100085F0100085F01000800
:100060005F0100085F0100085F0100085F010008F0
:100070005F0100085F0100085F0100085F010008E0
:100080003B0F00085F0F00085F0100085F010008D8
:100090005F0100085F0100085F0100085F010008C0
:1000A0005F0100085F0100085F0100085F010008B0
:1000B0005F0100085F0100085F0100085F010008A0
:1000C0005F0100085F0100085F0100085F01000890
:1000D0005F0100085F0100085F0100085F01000880
:1000E0005F0100085F0100085F0100085F01000870
:1000F0005F0100085F0100085F0100085F01000860
:100100005F0100085F0100085F0100085F0100084F
:100110005F0100085F0100085F0100085F0100083F
:100120005F0100085F0100085F0100085F0100082F
:10013000DFF80CD001F07EFA004800477D0D000882
:10014000380A00200648804706480047FEE7FEE7D9
:10015000FEE7FEE7FEE7FEE7FEE7FEE7FEE7FEE777
:1001600009020008310100080CB500224C48009239
:100170000192016841F4803101604FF4A06301688D
:1001800001F4003101910099491C0091019911B9C4
:1001900000999942F3D10168890333D50121019176
:1001A00040490A6842F010020A600A6822F003021D
:1001B0000A600A6842F002020A60416841604168D0
:1001C0004160416841F480614160416821F47C11E3
:1001D0004160416841F4E8114160016841F080717B
:1001E000016001688901FCD5416821F0030141608B
:1001F000416841F0020141604168C1F38101022977
:10020000FAD10CBD01920CBD254810B5016841F032
:10021000010101604168244A114041600168234A9C
:1002200011400160016821F480210160416821F4DE
:10023000FE0141604FF41F018160FFF795FF1C49EB
:100240004FF00060086010BD154A10B55068194B9A
:1002500010F00C01184803D0042901D0082901D05E
:10026000036012E05168536801F470114FF002040A
:1002700013F4803F04EB914102D053689B0301D5F6
:100280000E4B00E00B4B5943016051680A4AC1F321
:100290000311121D515C0268CA40026010BD0000CB
:1002A00000100240002002400000FFF8FFFFF6FEB1
:1002B00008ED00E000127A000000002000093D0077
:1002C0002849084328490860704730B50F23C27891
:1002D00001780125F2B1244A126801F1E02102F40B
:1002E000E062C2F5E062120AC2F10404D34042782F
:1002F000A24084781C401443220181F80024007835
:1003000000F01F018D404009800000F1E020C0F89E
:10031000005130BD01F01F0085404809800000F108
:10032000E020C0F8805130BD104A114001430E4812
:10033000001F016070470C4A121D0029116801D08E
:10034000014300E08143116070474FF0E021042831
:10035000086903D020F004000861704740F00400F1
:10036000FAE700000000FA050CED00E080FFFF1F37
:1003700001684FF6FE72114001600021016041608A
:100380008160C1606A496A4A0839904203D148686D
:1003900040F00F0006E0664A1432904204D14868EB
:1003A00040F0F00048607047614A2832904203D123
:1003B000486840F47060F5E75D4A3C32904203D1F2
:1003C000486840F47040EDE7594A5032904203D1FA
:1003D000486840F47020E5E7554A6432904203D102
:1003E000486840F47000DDE7514A7832904203D10A
:1003F000486840F07060D5E74E4A111F904203D123
:10040000086840F00F0006E04A4A1432904204D1D6
:10041000086840F0F00008607047464A2832904271
:1004200003D1086840F47060F5E7424A3C329042DC
:1004300003D1086840F47040EDE73E4A50329042E4
:10044000EAD1086840F47020E5E730B5026847F665
:10045000F0739A430C6A8B682343D1E904452C431B
:1004600023438C692343CC6923434C6A23438C6A1E
:10047000234313430360CA6842600A688260496884
:10048000C16030BD0021016041608160C1600161D7
:1004900041618161C16101624162816270470029ED
:1004A000016802D041F0010102E04FF6FE721140F6
:1004B00001607047002A026801D00A4300E08A43C5
:1004C0000260704741607047406880B270470246E2
:1004D0000020D10002D51749083901E01449083934
:1004E0000968114200D001207047C10003D51149AD
:1004F000091F086070470E49083948607047024676
:100500000020D10002D50B49083901E0084908391B
:100510000968114200D001207047C10003D5054988
:10052000091F086070470249083948607047000099
:1005300008000240080402408F4910B5884206D1E5
:100540000121042000F049FA002104203BE08B49FE
:10055000884206D10121082000F03FFA002108203E
:1005600031E08749884206D10121102000F035FA98
:100570000021102027E08349884206D10121202054
:1005800000F02BFA002120201DE07F49884206D18F
:100590000121402000F021FA0021402013E07B4996
:1005A000884206D10121802000F017FA0021802026
:1005B00009E0774988420AD184150121204600F0DC
:1005C0000CFA00212046BDE8104000F006BA10BD2C
:1005D00010B50121084600F000FA0021BDE81040E6
:1005E000012000F0FAB9F0B5CC78002204F00F0336
:1005F000E40601D58C7823430C784FF00F0C14F0EF
:10060000FF0F4FF0010E1BD005680E880EFA02F4A2
:100610002640A64210D196000CFA06F725EA0707F5
:1006200003FA06F5CE783D43282E02D0482E02D09C
:1006300002E0446100E00461521C082AE5D3056031
:100640000A88FF2A1CD94468002202F108060EFA23
:1006500006F50E882E40AE420ED196000CFA06F733
:10066000BC4303FA06F7CE783C43282E00D14561FF
:10067000CE78482E00D10561521C082AE5D344608B
:10068000F0BD4FF6FF710180022181700421C1701D
:1006900070470246002092680A4200D0012070474D
:1006A000806880B2704702460020D2680A4200D0BB
:1006B00001207047C06880B2704701617047416196
:1006C00070470AB10161704741617047C16070476E
:1006D00041F4803282618161826181698069704701
:1006E0002C4B10B51A684FF68074224042EA001075
:1006F0000843186010BD2849C8617047F0B5254C03
:10070000002801DAE36900E06368450D2E0185B237
:10071000C0F30157B540C0F30342032F05D0C60212
:100720000AD503269640B34307E023F0706263685E
:1007300023F07063636002E0AB4343F0706201B189
:100740002A43002801DAE261F0BD6260F0BD10B515
:100750008A0721F003040F49120F21440F238C68EC
:1007600093409C438C608B68904003438B6010BD2A
:100770000949C1F8DC00704700080140000C014045
:10078000001001400014014000180140001C01400D
:10079000002001400000014000002042A5480168FF
:1007A00041F0010101604168A34A114041600168C4
:1007B000A24A11400160016821F480210160416872
:1007C00021F4FE0141604FF41F0181607047994997
:1007D0000A6822F480320A600A6822F480220A60E1
:1007E000B0F5803F07D0B0F5802F03D1086840F402
:1007F000A02008607047086840F48030F9E703469D
:10080000002059098B4A01290AD002290AD0516ACD
:1008100003F01F02012393400B4200D001207047D8
:100820001168F5E7116AF3E718B500204FF4A064EA
:1008300000903120FFF7E3FF0099491C0091A1428D
:1008400001D00028F5D03120FFF7D9FF002800D0D3
:10085000012018BD774A116821F0F80141EAC00073
:1008600010607047764908607047724B5A680843B9
:1008700022F47C1210435860704771490866704733
:100880006C4A516821F00301014351607047694887
:10089000406800F00C007047664A516821F0F00192
:1008A000014351607047634A516821F4E06101439C
:1008B000516070475F4A516821F4605141EAC000BD
:1008C000506070475B4A0029517A01D0014300E033
:1008D0008143517270475A49C1F8D8007047554A50
:1008E000516821F440410143516070475149002251
:1008F00081F8202081F82020012802D0042802D18C
:10090000052081F8200070474E490860704749492A
:100910000A6A02430A6270474A49443908607047CC
:1009200030B5444A5168484B11F00C0103D00429FA
:1009300001D0082901D0036012E05168536801F426
:1009400070114FF0020413F4803F04EB914102D088
:1009500053689B0301D53D4B00E03B4B594301607D
:1009600051680F2303EA1111394B5C5C0168E140C7
:1009700041605468072505EA14241C5D21FA04F43B
:100980008460546805EAD4241B5DD940C160526874
:10099000032303EA92322E4B1B1F9A5CB1FBF2F148
:1009A000016130BD234A0029516901D0014300E0B3
:1009B0008143516170471F4A0029916901D0014369
:1009C00000E08143916170471A4A0029D16901D042
:1009D000014300E08143D1617047164A0029D16884
:1009E00001D0014300E08143D1607047114A0029E2
:1009F000116901D0014300E0814311617047114941
:100A00004039086070470E49C86470470949C87189
:100A100070470848416A41F0807141627047054A59
:100A20000146002092680A4200D001207047014927
:100A300088727047001002400000FFF8FFFFF6FECA
:100A4000000042428004424200127A0000093D0048
:100A500018000020C44910B588420AD101218C0336
:100A60002046FFF7BAFF2046BDE810400021FFF7FF
:100A7000B4BFBE49884202D101214C0410E0BC49F8
:100A8000884202D101218C040AE0BA49884202D18D
:100A90000121CC0404E0B84988420AD101210C05A7
:100AA0002046FFF7A3FF2046BDE810400021FFF7D6
:100AB0009DBF10BD30B50446008A85B00D464CF68A
:100AC000FF710840E98801432182A0894EF6F311A5
:100AD0000840A9882A8911436A8902431143A181E8
:100AE000A08A4FF6FF410840A9890143A1826846C8
:100AF000FFF716FF9C48844201D1039800E002985A
:100B0000A189090400EBC00101EB0010296801D59F
:100B1000490000E08900B0FBF1F06422B0FBF2F183
:100B200009010B096FF018056B4300EB8300A389E3
:100B30001D044FF0320306D503EBC000B0FBF2F00A
:100B400000F0070005E003EB0010B0FBF2F000F04E
:100B50000F000843208105B030BD4FF416510160ED
:100B600000218180C18001810C22428181817047F6
:100B700010B5028A4FF2FF031A400B884C882343BA
:100B80008C88C9880C4323431343038210BD002182
:100B9000018041808180C18070470029818902D015
:100BA00041F4005101E021F400518181704710B5FA
:100BB000C1F3421301F01F040121A140012B07D012
:100BC000022B07D01430002A026805D00A4304E043
:100BD0000C30F8E71030F6E78A43026010BD002AB7
:100BE000828A01D00A4300E08A4382827047028AE7
:100BF00022F00F020282028A0A430282704782892F
:100C000022F40062828182890A438281704700292E
:100C1000818902D041F0020101E021F002018181CD
:100C20007047028A22F020020282028A0A4302826C
:100C300070470029018A02D041F4804101E021F48B
:100C4000804101827047C1F308018180704780882C
:100C5000C0F308007047818941F00101818170472C
:100C6000028BD2B20283028B42EA012101837047D8
:100C7000028B02F47F420283028B0A430283704795
:100C80000029818A02D041F0200101E021F02001F9
:100C9000818270470029818A02D041F0100101E071
:100CA00021F01001818270470029818A02D041F031
:100CB000080101E021F00801818270470029818943
:100CC00002D041F4004101E0C1F30E01818170477F
:100CD0000029818A02D041F4006101E021F4006121
:100CE00081827047828A22F004028282828A0A43C9
:100CF000828270470029818A02D041F0020101E01E
:100D000021F00201818270470246002012880A42C7
:100D100000D001207047C9430180704770B501F0D1
:100D20001F0501260024C1F3421306FA05F2012B28
:100D30000FD0022B0FD0838A4FEA11210088134273
:100D400006FA01F600EA060001D000B101242046AF
:100D500070BD8389F0E7038AEEE70A0A012191401A
:100D6000C943018070470000003801400044004042
:100D700000480040004C004000500040C2B000203D
:100D8000ADF80401804607460646054600F0EAF83D
:100D900000F0A8F94EA000F05FFC002409214EA04D
:100DA00000F0ADFA0128F9D1641C0A2CF6D3DFF863
:100DB00034A1DFF8349142F2107B4C46D9F80000A0
:100DC000AAEB000101F5806100F0D3F92168A1468A
:100DD0000844206041A800F023FB002871D0684639
:100DE00000F055FB9DF80710002040EA01609DF8D7
:100DF00006109DF8044040EA01409DF8051040EAC5
:100E0000012004439DF80000032806D006281BD0CB
:100E1000082842D0242854D12AE008EB0B00A04235
:100E200010D0B8F1000F0DD0A4EB08012FA000F0F6
:100E300013FC444506D1D9F800102FA0A1EB0A01FC
:100E400000F00AFCA0463CE007EB0B00A0420DD0EE
:100E500067B1E11B2BA000F0FFFBBC4206D1D9F823
:100E6000001025A0A1EB0A0100F0F6FB274628E0C0
:100E700044F620603044A0420DD066B1A11B24A0EE
:100E800000F0EAFBB44206D1D9F800101AA0A1EB99
:100E90000A0100F0E1FB264613E049F640402844F1
:100EA000A0420DD065B1611B1CA000F0D5FBAC4287
:100EB00006D1D9F8001010A0A1EB0A0100F0CCFB7C
:100EC0002546D9F80010A1EB0A00FF2882DC74E760
:100ED00074657374200A0000746573743132330AC8
:100EE00000000000320200202C00002030336C6F24
:100EF00073742025640A0000627566666C656E2056
:100F00002564200030366C6F73742025640A00005D
:100F100032346C6F73742025640A000030386C6FB3
:100F200073742025640A00007047FEE7FEE7FEE7C1
:100F3000FEE7704770477047704710B54FF40014D4
:100F40002046FFF7DCFA012808D105490A78521C2F
:100F50000A702046BDE81040FFF7C7BA10BD7047C1
:100F60002800002010B586B0012144F20400FFF7EC
:100F700022FD4FF40070ADF8100018208DF813001A
:100F80000320234C8DF8120004A92046FFF72BFB09
:100F90002115ADF8101004218DF8131004A9204676
:100FA000FFF721FB4FF4E13000900020ADF8040082
:100FB000ADF80600ADF80800ADF80C000C20154C9B
:100FC000ADF80A0069462046FFF774FD012120466E
:100FD000FFF7E3FD06B010BD70B50E4D0446C1B27B
:100FE0002846FFF730FE80212846FFF78DFE0028B7
:100FF000F9D0204670BD10B5064C20212046FFF7E1
:1010000083FE0028F9D02046BDE81040FFF71FBE40
:10101000000801400038014008B54FF4E060FFF7D8
:101020004FF910208DF8000000208DF801000120FC
:101030008DF802008DF803006846FFF746F908BDF9
:1010400010B5C14C8CB02046FFF792F9012108463B
:10105000FFF7A8FCBD480090BD4801901020029009
:1010600001200021CDE903018020CDE905014001E7
:10107000CDE9081007910A9169462046FFF7E5F986
:1010800001212046FFF70BFA0CB010BD10B5AE4C95
:101090008CB0143C2046FFF76BF901210846FFF79E
:1010A00081FCAA480090AA480021FF38CDE901013F
:1010B000FF20CDE903018020CDE905012020CDE905
:1010C0000710C001CDE9090169462046FFF7BDF9C7
:1010D00001212046FFF7E3F9012202212046FFF714
:1010E000E9F9D1E730B5012185B04804FFF76CFC80
:1010F00001210420FFF75FFC0424ADF81040182004
:101100008DF813000320934D8DF8120004A9284692
:10111000FFF769FA0821ADF810108DF8134004A903
:101120002846FFF760FA4FF4612000900020ADF8E8
:101130000400ADF80600ADF80800ADF80C00834CD3
:101140000C20ADF80A00241F69462046FFF7B2FCC8
:101150000122C0212046FFF742FDFFF797FFFFF76E
:101160006FFFFFF759FF01212046FFF716FD05B07D
:1011700030BD2DE9F05FDFF8E0810C46824698F83B
:1011800000208DB2724E704998F801000027FF3E92
:101190001439824233D10846FFF796F9B8F80210A5
:1011A000084480B2FF2810D9C1F1FF0084B2314455
:1011B0002246504600F0F6F9A8F8027098F80000B0
:1011C00088F801002046BDE8F09FC0F1FF0087B21B
:1011D000A742314409D92246504600F0E3F9B8F855
:1011E00002002044A8F8020074E03A46504600F09D
:1011F000D9F9B8F802003844A8F802007DE0401C94
:1012000098F80020C0B2904266D18B460846FFF79E
:101210005BF9B8F802100844FE280FD23846A8F847
:10122000020047465846FFF74FF9C0F1FF017888A2
:10123000091A8FB2A74255D9474641E0C146C1F1CC
:10124000FF075846FFF740F9C0F1FF0807EB080B0E
:10125000A34515D8B9F802004C4631183A46504615
:1012600000F0A0F93A490AEB07004246FF3900F0C6
:1012700099F9A4F80280207860701FFA8BF0A2E739
:10128000BC421AD308EB0700A04216D9B9F80200F5
:10129000C84631183A46504600F084F92C49E21B02
:1012A00014460AEB0700FF3900F07CF9A8F8024069
:1012B00098F8000088F801000CE0B9F802004F46E9
:1012C00031182246504600F06DF978882044788025
:1012D00038787870284676E73846A8F802004746FE
:1012E0000846A0E7311844463A46504600F05AF9FD
:1012F00060883844608020786070384663E770B555
:1013000005464FF000760C463046FFF7E0F800281F
:1013100017D03046FFF7E9F8FF2C13D222462946B2
:101320000B4800F03FF9084D00212846FFF7B7F8B9
:1013300021462846FFF7C6F801212846FFF7AFF8F7
:10134000012070BDFF2070BD8000024004440040B9
:101350003301002000080140280000204FF0FF3139
:1013600001607047F0B522F0030402F0030500228B
:10137000294F0BE082F00303521CCE5C036886EA1F
:10138000136657F8266086EA03230360A242F1D36E
:101390000022A5F1010C0CE082EA0C032344521C4C
:1013A000CE5C036886EA136657F8266086EA032354
:1013B0000360AA42F0D3F0BD0068704708B50A4642
:1013C0004FF0FF31009101466846FFF7CBFF0098D0
:1013D00008BD00210180704770B500230F4E09E061
:1013E000CD5C04886540EDB25B1C36F8155085EA8B
:1013F000142404809342F3D370BD0088704708B56D
:101400000A460021ADF8001001466846FFF7E4FFE8
:10141000BDF8000008BD0000EC190008EC1700083A
:101420002DE9F041044600F08CF800281DD05B4EF9
:101430005B4D3068401B082827DDA888002709304D
:1014400081B221803068421B8A4213DB681E085C2F
:1014500033280CD1A81C491FFFF7D1FF2288E91EB1
:1014600011440988884202D10120BDE8F08130682A
:10147000421B01E0FF2908D9A91C4948921E00F02F
:1014800091F83068801E306027800020EDE770B54D
:1014900004464FF4827100F0ACF8414DA8782070FA
:1014A000E878607028796080697940EA012262807A
:1014B000A91D201D00F076F8384E3068411B608869
:1014C0000A1A05F1090101442846093A00F06AF8B0
:1014D00060883168081A0938306070BD0FB42DE992
:1014E000F0410446489FBDF81E50388805F10906B2
:1014F000B04224D9FF2020705A2060709DF81C0053
:10150000A0709DF81D00E0702571280A607125B15A
:101510002A4608A9A01D00F045F8291DA01CFFF7C8
:101520006EFFA11D6854010AE01D083429543320C0
:1015300028553E800120BDE8F0015DF814FB002035
:10154000F9E770B5154E164C3068811E06E022781A
:10155000FF2A02D162785A2A02D0641C8C42F6D348
:101560000F4DAC4206D1401B012801DD012070BDAA
:10157000002070BDA0EB04028C420948214606D130
:1015800000F010F83168601B081A3060F0E700F0D6
:1015900009F83168601B081A3060E7E72C0000206A
:1015A0003202002010B5431A934209D283188818DA
:1015B00003E010F8011D03F8011D521EF9D210BD01
:1015C00040EA01039B0703D009E008C9121F08C0C5
:1015D000042AFAD203E011F8013B00F8013B521E45
:1015E000F9D210BDD2B201E000F8012B491EFBD2A6
:1015F00070470022F6E710B513460A46044619461E
:10160000FFF7F0FF204610BD30B50B460146002025
:101610002022012409E021FA02F59D4205D303FAB4
:1016200002F5491B04FA02F52844151EA2F1010235
:10163000F1DC30BD064C074D06E0E06840F00103E8
:1016400094E8070098471034AC42F6D3FEF774FDD7
:10165000EC1D00080C1E00080FB4054B10B503A9C3
:10166000044A029800F018F810BC5DF814FB000062
:10167000D90F00083000002002E008C8121F08C17E
:10168000002AFAD170477047002001E001C1121F03
:10169000002AFBD1704700002DE9FF4F89B09B461F
:1016A0000446002506E025280BD05A460B999047A2
:1016B000641C6D1C20780028F5D10DB02846BDE8CB
:1016C000F08F0027B8460122474900E0074314F88D
:1016D000013F203B02FA03F00842F7D120782E2880
:1016E00019D114F8010F47F004072A280ED06FF023
:1016F0002F022078A0F1300109290CD808EB8801CD
:1017000002EB410100EB0108641CF2E70A98641C3B
:1017100050F8048B0A9020780028CED0642808D096
:10172000692806D075281ED05A460B9990476D1C23
:1017300058E00A994FF00A0901C90A91002802DA13
:1017400040422D2102E0390504D52B218DF82010CF
:10175000012103E0F90704D02021F7E78A4608AE0B
:101760000DE00021FAE70A994FF00A0901C90A9130
:10177000F7E74946FFF748FF303106F8011D00281A
:10178000F7D1ADEB060000F12009780701D44FF046
:101790000108C84502DDA8EB090000E000208046F2
:1017A000002706E008A85A46C05D0B9990476D1CBB
:1017B0007F1C5745F6DB04E030205A460B999047D2
:1017C0006D1CB8F10001A8F10108F5DC05E016F880
:1017D000010B5A460B9990476D1CB9F10001A9F114
:1017E0000109F4DC641C65E7092801000000891187
:1017F00012239B322446AD573665BF74488CC19D79
:101800005AAFD3BE6CCAE5DB7EE9F7F88110080158
:1018100093331A22A5562C47B7753E64C99C408D58
:10182000DBBF52AEEDDA64CBFFF976E802218B30F4
:10183000100299132667AF763444BD554AADC3BC38
:10184000588ED19F6EEBE7FA7CC8F5D983310A2018
:1018500091121803A7772E66B5543C45CBBD42AC18
:10186000D99E508FEFFB66EAFDD874C904428D53B0
:1018700016619F702004A9153227BB364CCEC5DFF8
:101880005EEDD7FC6888E1997AABF3BA85520C43D8
:1018900097711E60A1142805B3373A26CDDE44CFD8
:1018A000DFFD56ECE9986089FBBB72AA06638F7274
:1018B00014409D512225AB343006B9174EEFC7FEB8
:1018C0005CCCD5DD6AA9E3B8788AF19B87730E6298
:1018D00095501C41A3352A24B1163807CFFF46EE98
:1018E000DDDC54CDEBB962A8F99A708B0884819540
:1018F0001AA793B62CC2A5D33EE1B7F04008C91988
:10190000522BDB3A644EED5F766DFF7C8994008547
:101910009BB712A6ADD224C3BFF136E0C118480967
:10192000D33B5A2AE55E6C4FF77D7E6C0AA583B4E3
:10193000188691972EE3A7F23CC0B5D14229CB3847
:10194000500AD91B666FEF7E744CFD5D8BB502A407
:1019500099961087AFF326E2BDD034C1C3394A2827
:10196000D11A580BE77F6E6EF55C7C4D0CC685D79F
:101970001EE597F42880A1913AA3B3B2444ACD5B07
:101980005669DF78600CE91D722FFB3E8DD604C7C7
:101990009FF516E4A9902081BBB332A2C55A4C4BE7
:1019A000D7795E68E11C680DF33F7A2E0EE787F663
:1019B0001CC495D52AA1A3B03882B193466BCF7AC7
:1019C0005448DD59622DEB3C700EF91F8FF706E687
:1019D0009DD414C5ABB122A0B9923083C77B4E6AA7
:1019E000D5585C49E33D6A2CF11E780F00000000D9
:1019F000B71DC1046E3B8209D926430DDC76041362
:101A00006B6BC517B24D861A0550471EB8ED0826F8
:101A10000FF0C922D6D68A2F61CB4B2B649B0C3595
:101A2000D386CD310AA08E3CBDBD4F3870DB114C42
:101A3000C7C6D0481EE09345A9FD5241ACAD155F25
:101A40001BB0D45BC2969756758B5652C836196A2E
:101A50007F2BD86EA60D9B6311105A6714401D7919
:101A6000A35DDC7D7A7B9F70CD665E74E0B62398C3
:101A700057ABE29C8E8DA191399060953CC0278B2D
:101A80008BDDE68F52FBA582E5E66486585B2BBEB4
:101A9000EF46EABA3660A9B7817D68B3842D2FADD1
:101AA0003330EEA9EA16ADA45D0B6CA0906D32D474
:101AB0002770F3D0FE56B0DD494B71D94C1B36C7A9
:101AC000FB06F7C32220B4CE953D75CA28803AF2B2
:101AD0009F9DFBF646BBB8FBF1A679FFF4F63EE10D
:101AE00043EBFFE59ACDBCE82DD07DEC77708634D2
:101AF000C06D4730194B043DAE56C539AB06822741
:101B00001C1B4323C53D002E7220C12ACF9D8E127F
:101B100078804F16A1A60C1B16BBCD1F13EB8A01B4
:101B2000A4F64B057DD00808CACDC90C07AB977841
:101B3000B0B6567C69901571DE8DD475DBDD936B84
:101B40006CC0526FB5E6116202FBD066BF469F5E65
:101B5000085B5E5AD17D1D576660DC5363309B4D38
:101B6000D42D5A490D0B1944BA16D84097C6A5ACC6
:101B700020DB64A8F9FD27A54EE0E6A14BB0A1BF8C
:101B8000FCAD60BB258B23B69296E2B22F2BAD8ABB
:101B900098366C8E41102F83F60DEE87F35DA99970
:101BA0004440689D9D662B902A7BEA94E71DB4E033
:101BB000500075E4892636E93E3BF7ED3B6BB0F308
:101BC0008C7671F7555032FAE24DF3FE5FF0BCC6E9
:101BD000E8ED7DC231CB3ECF86D6FFCB8386B8D52C
:101BE000349B79D1EDBD3ADC5AA0FBD8EEE00C690C
:101BF00059FDCD6D80DB8E6037C64F643296087A12
:101C0000858BC97E5CAD8A73EBB04B77560D044F64
:101C1000E110C54B383686468F2B47428A7B005CE5
:101C20003D66C158E4408255535D43519E3B1D259E
:101C30002926DC21F0009F2C471D5E28424D1936D5
:101C4000F550D8322C769B3F9B6B5A3B26D615031A
:101C500091CBD40748ED970AFFF0560EFAA0111069
:101C60004DBDD014949B93192386521D0E562FF10F
:101C7000B94BEEF5606DADF8D7706CFCD2202BE25D
:101C8000653DEAE6BC1BA9EB0B0668EFB6BB27D7A0
:101C900001A6E6D3D880A5DE6F9D64DA6ACD23C4A1
:101CA000DDD0E2C004F6A1CDB3EB60C97E8D3EBDB0
:101CB000C990FFB910B6BCB4A7AB7DB0A2FB3AAED9
:101CC00015E6FBAACCC0B8A77BDD79A3C660369B1E
:101CD000717DF79FA85BB4921F4675961A163288DD
:101CE000AD0BF38C742DB081C330718599908A5DF2
:101CF0002E8D4B59F7AB085440B6C95045E68E4E71
:101D0000F2FB4F4A2BDD0C479CC0CD43217D827BEB
:101D10009660437F4F460072F85BC176FD0B866884
:101D20004A16476C93300461242DC565E94B9B111D
:101D30005E565A1587701918306DD81C353D9F02B4
:101D400082205E065B061D0BEC1BDC0F51A6933751
:101D5000E6BB52333F9D113E8880D03A8DD0972408
:101D60003ACD5620E3EB152D54F6D4297926A9C592
:101D7000CE3B68C1171D2BCCA000EAC8A550ADD63C
:101D8000124D6CD2CB6B2FDF7C76EEDBC1CBA1E3A7
:101D900076D660E7AFF023EA18EDE2EE1DBDA5F0C0
:101DA000AAA064F4738627F9C49BE6FD09FDB889EF
:101DB000BEE0798D67C63A80D0DBFB84D58BBC9AB8
:101DC00062967D9EBBB03E930CADFF97B110B0AF55
:101DD000060D71ABDF2B32A66836F3A26D66B4BC7C
:101DE000DA7B75B8035D36B5B440F7B10C1E000858
:101DF000000000203400000078160008401E000893
:101E000034000020040A00008816000800A24A04DA
:101E1000000000000000000001020304060708099A
:101E2000020406080000000001020304010203048A
:101E30000607080900000000320200200000000030
:0400000508000131BD
:00000001FF
